:020000003DC001
:140034000000000000000000000000000000000000000000B8
:140048000000000000000000000000000000000000000000A4
:14005C00000000000000000000000000000000000000000090
:14007000000000003443101001000000CFEFD2E0CDBFDEBF4B
:14008400C051D0400AEA08830024E8E4F1E011E0E934F10701
:1400980011F00192FBCF0083E4E3F0E0A0E0B1E010E0EC37B8
:1400AC00F10721F0C89531960D92F9CF01D0FFCF2197AA2487
:1400C000F89476D004E610E09BD004E610E098D00DD16BC0CA
:1400D4001A9929C007E0C8D00093480106FF06C084E18883E6
:1400E80020E031E001E6CED02090480124FE03C0222701EE58
:1400FC00A9D02FEF07E2A6D0F3D080910001803571F48091FA
:140110000101813051F481E08093450182E088B908E813E1A2
:140124006DD0222428B8209045012220D1F481E080934501AD
:1401380022243324309247012092460180E58093000182E038
:14014C0080930101ECD080E58093000182E080930101E5D029
:1401600004E610E04DD081E0809345018823E9F080914601FE
:14017400909147010196909347018093460104E610E03CD0CC
:1401880088EE93E020904601309047018215930540F42224D2
:14019C00209245013324309247012092460194CF2196089546
:1401B000222425BE209269002DBA81E080936E0020926F000D
:1401C40020927000F894000081E885B983EF84B980E88BB977
:1401D8008FEF8AB980E888B988E787B95F9805D05E9A03D063
:1401EC00299801D00895000000000000000000000000089533
:1402000002C00150104000300107D9F7089505C02224F801DE
:1402140021928F012A9580E08217C0F30895C5D0402F6627FA
:140228000FC047FF02C0289A01C02898DEDF440F299ADBDF1B
:14023C001B9B01C041602998D6DF6395683078F3042FB4C07E
:14025000A9D0C22EA02E5E98CCDF0A2DE2DFA02E0C2DDFDF05
:140264005E9AC5DF0A2D8AC0AA92BA92A02E5E98BEDF0A2D49
:14027800D4DF0027D2DFA02E5E9AB7DF0A2DB990A990089535
:14028C0089D07901A02E5E98AEDF0A2DC4DFA02ECC2408C0DA
:1402A0000027BFDFEC2DFF27EE0DFF1D0083C3940E80C014F3
:1402B400A8F35E9A9CDF0A2D66C070D07901A02E5E9895DFD9
:1402C8000A2DABDFA02ECC2406C0F70101917F01A4DFA02E82
:1402DC00C3940E80C014B8F35E9A85DF0A2D4FC021975F9859
:1402F00080DF85E0888320E431E00AE2E0DF21E001E2A6DF02
:1403040021E002E2A3DF28E205E2A0DF24E101E39DDF27E0A2
:1403180006E29ADF2FE000E297DF5F9A66DF219608952197BF
:14032C005F9861DF85E0888320E431E000E3C1DF85E088830E
:1403400020E431E00AE2BBDF84E1888320E031E000EAB5DF0F
:1403540021E001E27BDF21E002E278DF2AE104E275DF28E2CC
:1403680005E272DF27E006E26FDF2EE000E26CDF5F9A3BDFBE
:14037C0021960895A990B990C990D9900895A990B990C9905D
:14039000D990E990F99008957A936A935A934A93FA92EA9275
:1403A400DA92CA92BA92AA9208957A936A935A934A930895E7
:0A03B80049915991699179910895D6
:00000001FF
