:100A65000A12C0CFA4B0999282F88090050D344344
:0A0A750010100105083443101001B1
:100A4200E4FDFCC3ED9FEC9E50070DBD00010C8040
:100A5200F2E4FCFDC3ED9FEC9E50070DBD00010CBE
:020A620080F220
:010A6400226F
:0B0AC900EFD394004004001F80F622D1
:1008FA007F64120AC9C295D297C2967B007A0079A0
:10090A000D7547057F301209867A00790812097F2A
:10091A007D017F21120AAB7D017F22120AABE4FD21
:10092A007F25120AAB7D207F31120AAB7D077F2615
:0A093A00120AAB7D0F7F20020AAB0A
:100A8000E4FEEF3392B2EF25E0FFD296A292E43378
:080A90004207C2960EBE08EAFF
:010A9800223B
:0C0ABC00C297120A80E4FF120A80D29751
:010AC800220B
:100AAB00C297120A80AC07AF05120A80D297AF0427
:010ABB002218
:0609B8008B478A488949C3
:1009BE00C297120A80AD07E4FCECC3954A5017E4C7
:1009CE00FF120A80AB47AA48A9498C82758300EFB3
:0A09DE0012095D0C80E3D297AF050B
:0109E80022EC
:07097F007B007547057F2A8C
:060986008B448A458946FE
:10098C00C297120A80AD07E4FCECC395475018AB34
:10099C00440546E546AA457002054514F91209447A
:0B09AC00FF120A800C80E2D297AF051A
:0109B700221D
:090AD400C295D2957F82020AC985
:0609E9008B438A4489459E
:1009EF00E4FB7F07120ABC8F20300612C295AB437F
:1009FF00AA44A945754A207F611209B87B01AD2031
:070A0F007F27120AABAF03C1
:010A160022BD
:100A17008B1C8A1D891EC2957A00790D12097FAB3E
:100A27001CAA1DA91E7547207FA01209867D0E7F6F
:0B0A370020120AABD2957F0A020AC908
:100A9900759850758920758DFA758BFAE4F587D2AA
:020AA9008E229B
:080ADD008F993099FDC29922A6
:10088C001208FAC2A0C2A1C2A2C2A3120A997F7016
:10089C007E17120A42E522C39404501AE52224FE64
:1008AC00600C14600E2402700D7580FE800875803B
:1008BC00BF80037580F7E522B40303E4F522120A26
:1008CC00D47B007A0079231209E9EF60C80522E491
:1008DC00F521E521C3942050BC74232521F8E6FFB3
:0E08EC00120ADD7F587E02120A42052180E4C6
:03000000020800F3
:0C080000787FE4F6D8FD75814A020847B5
:10094400BB010689828A83E0225002E722BBFE02B1
:09095400E32289828A83E49322E4
:10095D00F8BB010DE58229F582E5833AF583E8F0D0
:10096D00225006E92582C8F622BBFE05E92582C87C
:02097D00F22264
:10080C0002088CE493A3F8E493A34003F68001F26E
:10081C0008DFF48029E493A3F85407240CC8C333ED
:10082C00C4540F4420C8834004F456800146F6DFBC
:10083C00E4800B0102040810204080900A65E47EDD
:10084C00019360BCA3FF543F30E509541FFEE493B1
:10085C00A360010ECF54C025E060A840B8E493A378
:10086C00FAE493A3F8E493A3C8C582C8CAC583CAA3
:10087C00F0A3C8C582C8CAC583CADFE9DEE780BE5B
:010A7F000076
:00000001FF
