:100B7600000000000000000000000000000000006F
:100B8600000000000000000000000000000000005F
:080B9600000000000000000057
:100BC1000A12C0CFA4B0999282F88090050D3443E7
:0A0BD1001010010508344310100154
:100B9E00E4FDFCC3ED9FEC9E50070DBD00010C80E3
:100BAE00F2E4FCFDC3ED9FEC9E50070DBD00010C61
:020BBE0080F2C3
:010BC0002212
:0B0C2300EFD394004004001F80F62275
:100A70007F64120C23C295D297C2967B007A0079CC
:100A80000D7551057F30120ABA7A007908120AB33F
:100A90007D017F21120BF57D017F22120BF5E4FD14
:100AA0007F25120BF57D147F31120BF57D077F2614
:030AB000020BF541
:100BDC00E4FEEF3392B2EF25E0FFD296A292E4331B
:080BEC004207C2960EBE08EAA2
:010BF40022DE
:0C0C1600C297120BDCE4FF120BDCD2973B
:010C220022AF
:100BF500C297120BDCAC07AF05120BDCD297AF0422
:010C050022CC
:060AEC008B4E8A4F895079
:100AF200C297120BDCAD07E4FCECC395515017E42E
:100B0200FF120BDCAB4EAA4FA9508C82758300EF0B
:0A0B120012090F0C80E3D297AF0523
:010B1C0022B6
:070AB3007B007551057F2A4D
:060ABA008B4E8A4F8950AB
:100AC000C297120BDCAD07E4FCECC395515018AB98
:100AD0004E0550E550AA4F7002054F14F91208F662
:0B0AE000FF120BDC0C80E2D297AF0588
:010AEB0022E8
:100C0600C2957D0F7F20120BF5D2957F82020C23B1
:060B1D008B4A8A4B894C53
:100B2300E4FB7F07120C168F20300612C295AB4AE6
:100B3300AA4BA94C7551147F61120AEC7B01AD20BD
:070B43007F27120BF5AF0341
:010B4A002288
:100B4B008B4A8A4B894CC2957A00790D120AB3AB4A
:100B5B004AAA4BA94C7551147FA0120ABA7D0E7F7D
:0B0B6B0020120BF5D2957F0A020C232C
:10093100E4F52178227C00FD7BFF7A0B7976FE7F3E
:10094100141208D078367C007D007BFF7A0B798AFF
:100951007E007F141208D0120A70C2A0C2A1C2A2E6
:10096100C2A3E4F580752301752401FB7A00792285
:10097100120B4B7F707E17120B9E7580BF20B6093C
:1009810085138075230175210120B70985148075B0
:100991002401752101E521B401177B007A00792238
:1009A100120B4BE4F523F524F5217FE87E03120BAE
:1009B1009E120C067B007A007936120B1DE5374535
:1009C100386019E537B40103851580E538B40103B2
:1009D100851680B2A67FB87E0B120B9EE4F537F523
:0309E10038809AC1
:030000000209E40E
:0C09E400787FE4F6D8FD758151020A2BE3
:10080000E709F608DFFA8046E709F208DFFA803EDA
:1008100088828C83E709F0A3DFFA8032E309F608C7
:10082000DFFA8078E309F208DFFA807088828C832F
:10083000E309F0A3DFFA806489828A83E0A3F608E3
:10084000DFFA805889828A83E0A3F208DFFA804CBD
:1008500080D280FA80C680D4806980F28033801094
:1008600080A680EA809A80A880DA80E280CA8033FD
:1008700089828A83ECFAE493A3C8C582C8CCC58375
:10088000CCF0A3C8C582C8CCC583CCDFE9DEE78045
:100890000D89828A83E493A3F608DFF9ECFAA9F0C4
:1008A000EDFB2289828A83ECFAE0A3C8C582C8CC1A
:1008B000C583CCF0A3C8C582C8CCC583CCDFEADE33
:1008C000E880DB89828A83E493A3F208DFF980CC95
:1008D00088F0EF60010E4E60C388F0ED2402B4048E
:1008E0000050B9F582EB2402B4040050AF23234535
:0608F00082239008507302
:1008F600BB010689828A83E0225002E722BBFE0200
:09090600E32289828A83E4932232
:10090F00F8BB010DE58229F582E5833AF583E8F01E
:10091F00225006E92582C8F622BBFE05E92582C8CA
:02092F00F222B2
:1009F000020931E493A3F8E493A34003F68001F2E3
:100A000008DFF48029E493A3F85407240CC8C33307
:100A1000C4540F4420C8834004F456800146F6DFD6
:100A2000E4800B0102040810204080900BC1E47E9A
:100A3000019360BCA3FF543F30E509541FFEE493CB
:100A4000A360010ECF54C025E060A840B8E493A392
:100A5000FAE493A3F8E493A3C8C582C8CAC583CABD
:100A6000F0A3C8C582C8CAC583CADFE9DEE780BE75
:010BDB000019
:00000001FF
