:10093D000A2BC0CFA4B0999282F880902020350167
:10094D0002030405060708091011121314151617D2
:10095D001819202122232425262728293031320554
:0D096D002634431010010521344310100101
:100A7200E4FDFCC3ED9FEC9E50070DBD00010C8010
:100A8200F2E4FCFDC3ED9FEC9E50070DBD00010C8E
:020A920080F2F0
:010A9400223F
:0B0ADC00EFD394004004001F80F622BE
:1008F3007F64120ADCC295D297C2967B007A007994
:10090300267510057F301209BD7A0079211209B6C8
:100913007D017F21120AAE7D017F22120AAEE4FD22
:100923007F25120AAE7D207F31120AAE7D077F2616
:0A093300120AAE7D0E7F20020AAE0C
:100A9500E4FEEF3392B2EF25E0FFD296A292E43363
:080AA5004207C2960EBE08EAEA
:010AAD002226
:0C0ACF00C297120A95E4FF120A95D29714
:010ADB0022F8
:100AAE00C297120A95AC07AF05120A95D297AF04FA
:010ABE002215
:0609EF008B128A1389142B
:1009F500C297120A95AD07E4FCECC395155017E4B0
:100A0500FF120A95AB12AA13A9148C82758300EF05
:0A0A15001209940C80E3D297AF059C
:010A1F0022B4
:0709B6007B007510057F2A8C
:0609BD008B0D8A0E890F6C
:1009C300C297120A95AD07E4FCECC395105018AB1F
:1009D3000D050FE50FAA0E7002050E14F912097B1F
:0B09E300FF120A950C80E2D297AF05CE
:0109EE0022E6
:100ABF00C2957D0F7F20120AAED2957F82020ADC8B
:060A20008B168A178918ED
:100A2600E4FB7F07120ACF8F20300612C295AB1661
:100A3600AA17A9187515207F611209EF7B01AD2051
:070A46007F27120AAEAF0387
:010A4D002286
:100A4E008B098A0A890BC2957A0079261209B6ABF0
:100A5E0009AA0AA90B7510207FA01209BDD2957F95
:040A6E000A020ADC92
:10088C00E4F5081208F3C2A0C2A1C2A2C2A3E4F507
:10089C0080FB7A007935120A4E7F707E17120A722D
:1008AC007580BFE508C39404501AE50824FE600C5B
:1008BC0014600E2402700D7580BF80087580F7805F
:1008CC00037580FEE508B40303E4F5087B007A00A9
:1008DC007935120A4E7F207E4E120A727DFF7F27D9
:0708EC00120AAE050880BCF2
:03000000020800F3
:0C080000787FE4F6D8FD758154020847AB
:10097B00BB010689828A83E0225002E722BBFE027A
:09098B00E32289828A83E49322AD
:10099400F8BB010DE58229F582E5833AF583E8F099
:1009A400225006E92582C8F622BBFE05E92582C845
:0209B400F2222D
:10080C0002088CE493A3F8E493A34003F68001F26E
:10081C0008DFF48029E493A3F85407240CC8C333ED
:10082C00C4540F4420C8834004F456800146F6DFBC
:10083C00E4800B010204081020408090093DE47E06
:10084C00019360BCA3FF543F30E509541FFEE493B1
:10085C00A360010ECF54C025E060A840B8E493A378
:10086C00FAE493A3F8E493A3C8C582C8CAC583CAA3
:10087C00F0A3C8C582C8CAC583CADFE9DEE780BE5B
:01097A00007C
:00000001FF
