:030000000201E317
:0C01E300787FE4F6D8FD75815202022AF4
:0E040400050D3443101001050834431010019B
:0B042C00EFD394004004001F80F62274
:0C0420007F6412042CC296D2B7C2952251
:1003EB00E4FEEF339294EF25E0FFD295A293E43332
:0803FB004207C2950EBE08EA9C
:0104030022D6
:0903D1007D017F211203DA7F2275
:1003DA00C2B71203EBAC07AF051203EBD2B7AF04F7
:0103EA0022F0
:0C041300C2B71203EBE4FF1203EBD2B7F8
:01041F0022BA
:0602F9008B4F8A50895171
:1002FF00C2B71203EBAD07E4FCECC395525017E401
:10030F00FF1203EBAB4FAA50A9518C82758300EFFC
:0A031F001201120C80E3D2B7AF0503
:0103290022B1
:0702C0007B007552057F2A47
:0602C7008B4F8A508951A3
:1002CD00C2B71203EBAD07E4FCECC395525018AB6B
:1002DD004F0551E551AA507002055014F91200F95D
:0B02ED00FF1203EB0C80E2D2B7AF055C
:0102F80022E3
:10032A00C2967A0079081202C01203D11D7F2512E3
:10033A0003DA7D147F311203DA7D077F261203DA8E
:0E034A007D0F7F201203DAD2967F8202042CF0
:060358008B4B8A4C894D1D
:10035E00E4FB7F071204138F20300612C296AB4BBC
:10036E00AA4CA94D7552147F611202F97B01AD2082
:07037E007F271203DAAF0331
:010385002255
:10026F008B4B8A4C894DC2967B007A00790D755263
:10027F00057F301202C77A00790D1202C0AB4BAA6C
:10028F004CA94D7552147FA01202C71203D17D1ACB
:10029F007F241203DAE4FD7F251203DA7D077F2620
:1002AF001203DA7D0E7F201203DAD2967F0A020440
:0102BF002C12
:100386000000000000000000000000000000000067
:100396000000000000000000000000000000000057
:0803A60000000000000000004F
:1003AE00E4FDFCC3ED9FEC9E50070DBD00010C80DB
:1003BE00F2E4FCFDC3ED9FEC9E50070DBD00010C59
:0203CE0080F2BB
:0103D000220A
:10013400E4F521F52278237C00FD7BFF7A037986A0
:10014400FE7F141200D378377C007D007BFF7A0396
:10015400799A7E007F141200D3120420C2B4C2B56F
:100164007524017525017B007A00792312026F7FC3
:10017400707E171203AED2B4D2B520B008C2B475E3
:10018400240175220120B108C2B57525017522012B
:10019400E522B4011B7B007A00792312026FE4F597
:1001A40024F525F5227FE87E031203AED2B4D2B53E
:1001B40012032A7B007A007937120358EF6019E59D
:1001C40038B40102C2B4E539B40102C2B57FE87E95
:0F01D400031203AED2B4D2B5E4F538F539809BEF
:1001EF00020134E493A3F8E493A34003F68001F2F1
:1001FF0008DFF48029E493A3F85407240CC8C33311
:10020F00C4540F4420C8834004F456800146F6DFDF
:10021F00E4800B0102040810204080900404E47E67
:10022F00019360BCA3FF543F30E509541FFEE493D4
:10023F00A360010ECF54C025E060A840B8E493A39B
:10024F00FAE493A3F8E493A3C8C582C8CAC583CAC6
:10025F00F0A3C8C582C8CAC583CADFE9DEE780BE7E
:0104120000E9
:10000300E709F608DFFA8046E709F208DFFA803EDF
:1000130088828C83E709F0A3DFFA8032E309F608CC
:10002300DFFA8078E309F208DFFA807088828C8334
:10003300E309F0A3DFFA806489828A83E0A3F608E8
:10004300DFFA805889828A83E0A3F208DFFA804CC2
:1000530080D280FA80C680D4806980F28033801099
:1000630080A680EA809A80A880DA80E280CA803302
:1000730089828A83ECFAE493A3C8C582C8CCC5837A
:10008300CCF0A3C8C582C8CCC583CCDFE9DEE7804A
:100093000D89828A83E493A3F608DFF9ECFAA9F0C9
:1000A300EDFB2289828A83ECFAE0A3C8C582C8CC1F
:1000B300C583CCF0A3C8C582C8CCC583CCDFEADE38
:1000C300E880DB89828A83E493A3F208DFF980CC9A
:1000D30088F0EF60010E4E60C388F0ED2402B40493
:1000E3000050B9F582EB2402B4040050AF2323453A
:0600F3008223900053730C
:1000F900BB010689828A83E0225002E722BBFE0205
:09010900E32289828A83E4932237
:10011200F8BB010DE58229F582E5833AF583E8F023
:10012200225006E92582C8F622BBFE05E92582C8CF
:02013200F222B7
:00000001FF
